:100000000C942A000C9447000C9447000C94470071
:100010000C9447000C9447000C9447000C94470044
:100020000C9447000C9447000C9447000C94470034
:100030000C9447000C9447000C9447000C94470024
:100040000C9447000C9447000C9447000C94470014
:100050000C94470011241FBECFE5D8E0DEBFCDBF12
:1000600010E0A0E6B0E0E2E7F5E002C005900D92F6
:10007000AC36B107D9F720E0ACE6B0E001C01D9284
:10008000AC36B207E1F70E9442020C94B7020C941E
:1000900000003F983E9A3D983C983B983A98399892
:1000A000389A359A329A319A309A379A0895369A10
:1000B000349BFECF84B195B10895442319F04130AB
:1000C000C9F10895813091F028F08230D9F0833061
:1000D00029F108952AB381E090E002C0880F991FAA
:1000E0006A95E2F7809582238ABB089527B381E061
:1000F00090E002C0880F991F6A95E2F780958223ED
:1001000087BB089524B381E090E002C0880F991F57
:100110006A95E2F78095822384BB089521B381E03C
:1001200090E002C0880F991F6A95E2F780958223BC
:1001300081BB0895813089F028F08230C9F0833086
:1001400011F108952AB381E090E002C0880F991F51
:100150006A95E2F7822B8ABB089527B381E090E08D
:1001600002C0880F991F6A95E2F7822B87BB08951A
:1001700024B381E090E002C0880F991F6A95E2F7EE
:10018000822B84BB089521B381E090E002C0880FE8
:10019000991F6A95E2F7822B81BB0895442319F0D9
:1001A0004130C9F10895813091F028F08230D9F0C2
:1001B000833029F108952BB381E090E002C0880FCD
:1001C000991F6A95E2F7809582238BBB089528B327
:1001D00081E090E002C0880F991F6A95E2F7809550
:1001E000822388BB089525B381E090E002C0880F88
:1001F000991F6A95E2F78095822385BB089522B303
:1002000081E090E002C0880F991F6A95E2F780951F
:10021000822382BB0895813089F028F08230C9F0B2
:10022000833011F108952BB381E090E002C0880F74
:10023000991F6A95E2F7822B8BBB089528B381E062
:1002400090E002C0880F991F6A95E2F7822B88BB65
:10025000089525B381E090E002C0880F991F6A9548
:10026000E2F7822B85BB089522B381E090E002C0C3
:10027000880F991F6A95E2F7822B82BB0895CF936E
:10028000C82F40E061E081E00E94CE0040E062E0E3
:1002900081E00E94CE0040E063E081E00E94CE0059
:1002A0008BB39C2F907F8F70892B8BBB41E063E0D9
:1002B00081E00E94CE008FE99FE00197F1F700C036
:1002C000000040E063E081E00E94CE002BB330E10B
:1002D000C39FC0011124922F9F70892B8BBB41E0DB
:1002E00063E081E00E94CE008FE99FE00197F1F783
:1002F00000C0000040E063E081E00E94CE008FE398
:100300009FE10197F1F700C00000CF91089541E00F
:1003100061E081E00E945D0041E062E081E00E94D6
:100320005D0041E063E081E00E945D0041E064E047
:1003300080E00E945D0041E065E080E00E945D0099
:1003400041E066E080E00E945D0041E067E080E01F
:100350000E945D002FEF81EE94E02150804090409C
:10036000E1F700C0000082E00E943F0183E30E94A9
:100370003F0182E30E943F0188E20E943F018CE03E
:100380000E943F0181E00E943F0186E00E943F0100
:100390000895CF93C82F41E061E081E00E94CE0034
:1003A00040E062E081E00E94CE0040E063E081E056
:1003B0000E94CE008BB39C2F907F8F70892B8BBBBC
:1003C00041E063E081E00E94CE008FE99FE0019769
:1003D000F1F700C0000040E063E081E00E94CE0041
:1003E0002BB330E1C39FC0011124922F9F70892B42
:1003F0008BBB41E063E081E00E94CE008FE99FE08B
:100400000197F1F700C0000040E063E081E00E9446
:10041000CE008FE39FE10197F1F700C00000CF917C
:100420000895CF93DF93EC018881882331F02196E2
:100430000E94C90189918111FBCFDF91CF9108956D
:10044000CF93DF93CDB7DEB72A970FB6F894DEBF10
:100450000FBECDBF2AE030E0AE014F5F5F4F0E947C
:100460006B02CE0101960E9411022A960FB6F894F3
:10047000DEBF0FBECDBFDF91CF91089581E00E9416
:100480003F0108950E9487010E9449000E943E0298
:100490000E945700EC012FEF80E792E0215080404E
:1004A0009040E1F700C00000209791F30E943E02C7
:1004B00080E690E00E941102BE0180E090E00E9480
:1004C00020022FEF82E597E0215080409040E1F735
:1004D00000C00000DDCF2532310520F4223010F0BD
:1004E0000C947602FA011082CA010895BB272A30C3
:1004F00051F4992342F4BDE29095809570956195F1
:100500007F4F8F4F9F4F0C948602BB27FA01A62F77
:100510006217710581059105330B30FB66F0AA2740
:10052000660F771F881F991FAA1FA21710F0A21B22
:1005300063953850A9F7A05DAA3308F0A95DA1938F
:1005400036F7B111B1931082CA010C94A702DC01F5
:10055000FC01672F71917723E1F7329704C07C91FA
:100560006D9370836291AE17BF07C8F30895F89436
:02057000FFCFBB
:0C057200766F6C74616765203D2000000E
:00000001FF
